{
  "address": "0xEefe0DA67C4894B1353DB7071764e2bfb1C277cD",
  "abi": [
    {
      "inputs": [
        {
          "internalType": "address",
          "name": "_htmContract",
          "type": "address"
        },
        {
          "internalType": "address",
          "name": "_token",
          "type": "address"
        },
        {
          "internalType": "address",
          "name": "_gToken",
          "type": "address"
        },
        {
          "internalType": "address",
          "name": "_gutdContract",
          "type": "address"
        },
        {
          "internalType": "address",
          "name": "_daoAddress",
          "type": "address"
        },
        {
          "internalType": "uint256",
          "name": "_daoAllocationPercent",
          "type": "uint256"
        },
        {
          "internalType": "string",
          "name": "_name",
          "type": "string"
        },
        {
          "internalType": "string",
          "name": "_symbol",
          "type": "string"
        }
      ],
      "stateMutability": "nonpayable",
      "type": "constructor"
    },
    {
      "anonymous": false,
      "inputs": [
        {
          "indexed": true,
          "internalType": "address",
          "name": "owner",
          "type": "address"
        },
        {
          "indexed": true,
          "internalType": "address",
          "name": "spender",
          "type": "address"
        },
        {
          "indexed": false,
          "internalType": "uint256",
          "name": "amount",
          "type": "uint256"
        }
      ],
      "name": "Approval",
      "type": "event"
    },
    {
      "anonymous": false,
      "inputs": [
        {
          "indexed": false,
          "internalType": "uint256",
          "name": "reStaked",
          "type": "uint256"
        },
        {
          "indexed": false,
          "internalType": "uint256",
          "name": "daoAllocation",
          "type": "uint256"
        }
      ],
      "name": "ClaimAndStake",
      "type": "event"
    },
    {
      "anonymous": false,
      "inputs": [
        {
          "indexed": true,
          "internalType": "address",
          "name": "caller",
          "type": "address"
        },
        {
          "indexed": true,
          "internalType": "address",
          "name": "owner",
          "type": "address"
        },
        {
          "indexed": false,
          "internalType": "uint256",
          "name": "assets",
          "type": "uint256"
        },
        {
          "indexed": false,
          "internalType": "uint256",
          "name": "shares",
          "type": "uint256"
        }
      ],
      "name": "Deposit",
      "type": "event"
    },
    {
      "anonymous": false,
      "inputs": [
        {
          "indexed": false,
          "internalType": "address",
          "name": "_asset",
          "type": "address"
        },
        {
          "indexed": false,
          "internalType": "uint256",
          "name": "_assetBalance",
          "type": "uint256"
        },
        {
          "indexed": false,
          "internalType": "address",
          "name": "_receiver",
          "type": "address"
        }
      ],
      "name": "RecoveredERC20",
      "type": "event"
    },
    {
      "anonymous": false,
      "inputs": [
        {
          "indexed": true,
          "internalType": "address",
          "name": "from",
          "type": "address"
        },
        {
          "indexed": true,
          "internalType": "address",
          "name": "to",
          "type": "address"
        },
        {
          "indexed": false,
          "internalType": "uint256",
          "name": "amount",
          "type": "uint256"
        }
      ],
      "name": "Transfer",
      "type": "event"
    },
    {
      "anonymous": false,
      "inputs": [
        {
          "indexed": true,
          "internalType": "address",
          "name": "caller",
          "type": "address"
        },
        {
          "indexed": true,
          "internalType": "address",
          "name": "receiver",
          "type": "address"
        },
        {
          "indexed": true,
          "internalType": "address",
          "name": "owner",
          "type": "address"
        },
        {
          "indexed": false,
          "internalType": "uint256",
          "name": "assets",
          "type": "uint256"
        },
        {
          "indexed": false,
          "internalType": "uint256",
          "name": "shares",
          "type": "uint256"
        }
      ],
      "name": "Withdraw",
      "type": "event"
    },
    {
      "inputs": [],
      "name": "DOMAIN_SEPARATOR",
      "outputs": [
        {
          "internalType": "bytes32",
          "name": "",
          "type": "bytes32"
        }
      ],
      "stateMutability": "view",
      "type": "function"
    },
    {
      "inputs": [
        {
          "internalType": "address",
          "name": "",
          "type": "address"
        },
        {
          "internalType": "address",
          "name": "",
          "type": "address"
        }
      ],
      "name": "allowance",
      "outputs": [
        {
          "internalType": "uint256",
          "name": "",
          "type": "uint256"
        }
      ],
      "stateMutability": "view",
      "type": "function"
    },
    {
      "inputs": [
        {
          "internalType": "address",
          "name": "spender",
          "type": "address"
        },
        {
          "internalType": "uint256",
          "name": "amount",
          "type": "uint256"
        }
      ],
      "name": "approve",
      "outputs": [
        {
          "internalType": "bool",
          "name": "",
          "type": "bool"
        }
      ],
      "stateMutability": "nonpayable",
      "type": "function"
    },
    {
      "inputs": [],
      "name": "asset",
      "outputs": [
        {
          "internalType": "contract ERC20",
          "name": "",
          "type": "address"
        }
      ],
      "stateMutability": "view",
      "type": "function"
    },
    {
      "inputs": [
        {
          "internalType": "address",
          "name": "",
          "type": "address"
        }
      ],
      "name": "balanceOf",
      "outputs": [
        {
          "internalType": "uint256",
          "name": "",
          "type": "uint256"
        }
      ],
      "stateMutability": "view",
      "type": "function"
    },
    {
      "inputs": [],
      "name": "claimAndStake",
      "outputs": [],
      "stateMutability": "nonpayable",
      "type": "function"
    },
    {
      "inputs": [
        {
          "internalType": "uint256",
          "name": "shares",
          "type": "uint256"
        }
      ],
      "name": "convertToAssets",
      "outputs": [
        {
          "internalType": "uint256",
          "name": "",
          "type": "uint256"
        }
      ],
      "stateMutability": "view",
      "type": "function"
    },
    {
      "inputs": [
        {
          "internalType": "uint256",
          "name": "assets",
          "type": "uint256"
        }
      ],
      "name": "convertToShares",
      "outputs": [
        {
          "internalType": "uint256",
          "name": "",
          "type": "uint256"
        }
      ],
      "stateMutability": "view",
      "type": "function"
    },
    {
      "inputs": [],
      "name": "daoAddress",
      "outputs": [
        {
          "internalType": "address",
          "name": "",
          "type": "address"
        }
      ],
      "stateMutability": "view",
      "type": "function"
    },
    {
      "inputs": [],
      "name": "daoAllocationPercent",
      "outputs": [
        {
          "internalType": "uint256",
          "name": "",
          "type": "uint256"
        }
      ],
      "stateMutability": "view",
      "type": "function"
    },
    {
      "inputs": [],
      "name": "decimals",
      "outputs": [
        {
          "internalType": "uint8",
          "name": "",
          "type": "uint8"
        }
      ],
      "stateMutability": "view",
      "type": "function"
    },
    {
      "inputs": [
        {
          "internalType": "uint256",
          "name": "assets",
          "type": "uint256"
        },
        {
          "internalType": "address",
          "name": "receiver",
          "type": "address"
        }
      ],
      "name": "deposit",
      "outputs": [
        {
          "internalType": "uint256",
          "name": "shares",
          "type": "uint256"
        }
      ],
      "stateMutability": "nonpayable",
      "type": "function"
    },
    {
      "inputs": [],
      "name": "gToken",
      "outputs": [
        {
          "internalType": "address",
          "name": "",
          "type": "address"
        }
      ],
      "stateMutability": "view",
      "type": "function"
    },
    {
      "inputs": [],
      "name": "gutdContract",
      "outputs": [
        {
          "internalType": "address",
          "name": "",
          "type": "address"
        }
      ],
      "stateMutability": "view",
      "type": "function"
    },
    {
      "inputs": [],
      "name": "htmContract",
      "outputs": [
        {
          "internalType": "address",
          "name": "",
          "type": "address"
        }
      ],
      "stateMutability": "view",
      "type": "function"
    },
    {
      "inputs": [
        {
          "internalType": "address",
          "name": "",
          "type": "address"
        }
      ],
      "name": "maxDeposit",
      "outputs": [
        {
          "internalType": "uint256",
          "name": "",
          "type": "uint256"
        }
      ],
      "stateMutability": "view",
      "type": "function"
    },
    {
      "inputs": [
        {
          "internalType": "address",
          "name": "",
          "type": "address"
        }
      ],
      "name": "maxMint",
      "outputs": [
        {
          "internalType": "uint256",
          "name": "",
          "type": "uint256"
        }
      ],
      "stateMutability": "view",
      "type": "function"
    },
    {
      "inputs": [
        {
          "internalType": "address",
          "name": "owner",
          "type": "address"
        }
      ],
      "name": "maxRedeem",
      "outputs": [
        {
          "internalType": "uint256",
          "name": "",
          "type": "uint256"
        }
      ],
      "stateMutability": "view",
      "type": "function"
    },
    {
      "inputs": [
        {
          "internalType": "address",
          "name": "owner",
          "type": "address"
        }
      ],
      "name": "maxWithdraw",
      "outputs": [
        {
          "internalType": "uint256",
          "name": "",
          "type": "uint256"
        }
      ],
      "stateMutability": "view",
      "type": "function"
    },
    {
      "inputs": [
        {
          "internalType": "uint256",
          "name": "shares",
          "type": "uint256"
        },
        {
          "internalType": "address",
          "name": "receiver",
          "type": "address"
        }
      ],
      "name": "mint",
      "outputs": [
        {
          "internalType": "uint256",
          "name": "assets",
          "type": "uint256"
        }
      ],
      "stateMutability": "nonpayable",
      "type": "function"
    },
    {
      "inputs": [],
      "name": "name",
      "outputs": [
        {
          "internalType": "string",
          "name": "",
          "type": "string"
        }
      ],
      "stateMutability": "view",
      "type": "function"
    },
    {
      "inputs": [
        {
          "internalType": "address",
          "name": "",
          "type": "address"
        }
      ],
      "name": "nonces",
      "outputs": [
        {
          "internalType": "uint256",
          "name": "",
          "type": "uint256"
        }
      ],
      "stateMutability": "view",
      "type": "function"
    },
    {
      "inputs": [
        {
          "internalType": "address",
          "name": "owner",
          "type": "address"
        },
        {
          "internalType": "address",
          "name": "spender",
          "type": "address"
        },
        {
          "internalType": "uint256",
          "name": "value",
          "type": "uint256"
        },
        {
          "internalType": "uint256",
          "name": "deadline",
          "type": "uint256"
        },
        {
          "internalType": "uint8",
          "name": "v",
          "type": "uint8"
        },
        {
          "internalType": "bytes32",
          "name": "r",
          "type": "bytes32"
        },
        {
          "internalType": "bytes32",
          "name": "s",
          "type": "bytes32"
        }
      ],
      "name": "permit",
      "outputs": [],
      "stateMutability": "nonpayable",
      "type": "function"
    },
    {
      "inputs": [
        {
          "internalType": "uint256",
          "name": "assets",
          "type": "uint256"
        }
      ],
      "name": "previewDeposit",
      "outputs": [
        {
          "internalType": "uint256",
          "name": "",
          "type": "uint256"
        }
      ],
      "stateMutability": "view",
      "type": "function"
    },
    {
      "inputs": [
        {
          "internalType": "uint256",
          "name": "shares",
          "type": "uint256"
        }
      ],
      "name": "previewMint",
      "outputs": [
        {
          "internalType": "uint256",
          "name": "",
          "type": "uint256"
        }
      ],
      "stateMutability": "view",
      "type": "function"
    },
    {
      "inputs": [
        {
          "internalType": "uint256",
          "name": "shares",
          "type": "uint256"
        }
      ],
      "name": "previewRedeem",
      "outputs": [
        {
          "internalType": "uint256",
          "name": "",
          "type": "uint256"
        }
      ],
      "stateMutability": "view",
      "type": "function"
    },
    {
      "inputs": [
        {
          "internalType": "uint256",
          "name": "assets",
          "type": "uint256"
        }
      ],
      "name": "previewWithdraw",
      "outputs": [
        {
          "internalType": "uint256",
          "name": "",
          "type": "uint256"
        }
      ],
      "stateMutability": "view",
      "type": "function"
    },
    {
      "inputs": [
        {
          "internalType": "address",
          "name": "_asset",
          "type": "address"
        },
        {
          "internalType": "address",
          "name": "_receiver",
          "type": "address"
        }
      ],
      "name": "recoverERC20",
      "outputs": [],
      "stateMutability": "nonpayable",
      "type": "function"
    },
    {
      "inputs": [
        {
          "internalType": "uint256",
          "name": "shares",
          "type": "uint256"
        },
        {
          "internalType": "address",
          "name": "receiver",
          "type": "address"
        },
        {
          "internalType": "address",
          "name": "owner",
          "type": "address"
        }
      ],
      "name": "redeem",
      "outputs": [
        {
          "internalType": "uint256",
          "name": "assets",
          "type": "uint256"
        }
      ],
      "stateMutability": "nonpayable",
      "type": "function"
    },
    {
      "inputs": [],
      "name": "symbol",
      "outputs": [
        {
          "internalType": "string",
          "name": "",
          "type": "string"
        }
      ],
      "stateMutability": "view",
      "type": "function"
    },
    {
      "inputs": [],
      "name": "token",
      "outputs": [
        {
          "internalType": "address",
          "name": "",
          "type": "address"
        }
      ],
      "stateMutability": "view",
      "type": "function"
    },
    {
      "inputs": [],
      "name": "totalAssets",
      "outputs": [
        {
          "internalType": "uint256",
          "name": "",
          "type": "uint256"
        }
      ],
      "stateMutability": "view",
      "type": "function"
    },
    {
      "inputs": [],
      "name": "totalSupply",
      "outputs": [
        {
          "internalType": "uint256",
          "name": "",
          "type": "uint256"
        }
      ],
      "stateMutability": "view",
      "type": "function"
    },
    {
      "inputs": [],
      "name": "totalSupplyWithDaoAllocation",
      "outputs": [
        {
          "internalType": "uint256",
          "name": "",
          "type": "uint256"
        }
      ],
      "stateMutability": "view",
      "type": "function"
    },
    {
      "inputs": [
        {
          "internalType": "address",
          "name": "to",
          "type": "address"
        },
        {
          "internalType": "uint256",
          "name": "amount",
          "type": "uint256"
        }
      ],
      "name": "transfer",
      "outputs": [
        {
          "internalType": "bool",
          "name": "",
          "type": "bool"
        }
      ],
      "stateMutability": "nonpayable",
      "type": "function"
    },
    {
      "inputs": [
        {
          "internalType": "address",
          "name": "from",
          "type": "address"
        },
        {
          "internalType": "address",
          "name": "to",
          "type": "address"
        },
        {
          "internalType": "uint256",
          "name": "amount",
          "type": "uint256"
        }
      ],
      "name": "transferFrom",
      "outputs": [
        {
          "internalType": "bool",
          "name": "",
          "type": "bool"
        }
      ],
      "stateMutability": "nonpayable",
      "type": "function"
    },
    {
      "inputs": [
        {
          "internalType": "uint256",
          "name": "assets",
          "type": "uint256"
        },
        {
          "internalType": "address",
          "name": "receiver",
          "type": "address"
        },
        {
          "internalType": "address",
          "name": "owner",
          "type": "address"
        }
      ],
      "name": "withdraw",
      "outputs": [
        {
          "internalType": "uint256",
          "name": "shares",
          "type": "uint256"
        }
      ],
      "stateMutability": "nonpayable",
      "type": "function"
    }
  ],
  "transactionHash": "0x8e7b5b7120c08c18e416eb0233b5717a0d7f59beecfaf37bb2580651e9d8a62f",
  "args": [
    "0x24f2d06446af8d6e89febc205e7936a602a87b60",
    "0x4f4f9b8d5b4d0dc10506e5551b0513b61fd59e75",
    "0xfFBAbEb49be77E5254333d5fdfF72920B989425f",
    "0xd93d3bdba18ebcb3317a57119ea44ed2cf41c2f2",
    "0x5e375F08af8e15b3bFbab3355DA4A26cfe40F29F",
    "500000",
    "Vault Giv",
    "vGiv"
  ],
  "numDeployments": 1,
  "solcInputHash": "0454db7a2153ff339a13a2b10fb14351",
  "bytecode": "0x6101006040523480156200001257600080fd5b50604051620025c4380380620025c4833981016040819052620000359162000396565b8682828181846001600160a01b031663313ce5676040518163ffffffff1660e01b815260040160206040518083038186803b1580156200007457600080fd5b505afa15801562000089573d6000803e3d6000fd5b505050506040513d601f19601f82011682018060405250810190620000af919062000468565b8251620000c490600090602086019062000206565b508151620000da90600190602085019062000206565b5060ff81166080524660a052620000f06200016a565b60c0525050506001600160a01b0392831660e0525050600680549982166001600160a01b03199a8b1617905560078054988216988a1698909817909755505060088054948616948716949094179093556009805492851692861692909217909155600a8054919093169316929092179055600b5562000575565b60007f8b73c3c69bb8fe3d512ecc4cf759cc79239f7b179b0ffacaa9a75d522b39400f60006040516200019e9190620004d1565b6040805191829003822060208301939093528101919091527fc89efdaa54c0f20c7adf612882df0950f5a951637e0307cdcb4c672f298b8bc660608201524660808201523060a082015260c00160405160208183030381529060405280519060200120905090565b828054620002149062000494565b90600052602060002090601f01602090048101928262000238576000855562000283565b82601f106200025357805160ff191683800117855562000283565b8280016001018555821562000283579182015b828111156200028357825182559160200191906001019062000266565b506200029192915062000295565b5090565b5b8082111562000291576000815560010162000296565b80516001600160a01b0381168114620002c457600080fd5b919050565b634e487b7160e01b600052604160045260246000fd5b600082601f830112620002f157600080fd5b81516001600160401b03808211156200030e576200030e620002c9565b604051601f8301601f19908116603f01168101908282118183101715620003395762000339620002c9565b816040528381526020925086838588010111156200035657600080fd5b600091505b838210156200037a57858201830151818301840152908201906200035b565b838211156200038c5760008385830101525b9695505050505050565b600080600080600080600080610100898b031215620003b457600080fd5b620003bf89620002ac565b9750620003cf60208a01620002ac565b9650620003df60408a01620002ac565b9550620003ef60608a01620002ac565b9450620003ff60808a01620002ac565b60a08a015160c08b015191955093506001600160401b03808211156200042457600080fd5b620004328c838d01620002df565b935060e08b01519150808211156200044957600080fd5b50620004588b828c01620002df565b9150509295985092959890939650565b6000602082840312156200047b57600080fd5b815160ff811681146200048d57600080fd5b9392505050565b600181811c90821680620004a957607f821691505b60208210811415620004cb57634e487b7160e01b600052602260045260246000fd5b50919050565b600080835481600182811c915080831680620004ee57607f831692505b60208084108214156200050f57634e487b7160e01b86526022600452602486fd5b818015620005265760018114620005385762000567565b60ff1986168952848901965062000567565b60008a81526020902060005b868110156200055f5781548b82015290850190830162000544565b505084890196505b509498975050505050505050565b60805160a05160c05160e051611ff9620005cb60003960008181610382015281816109b701528181610e2101528181611036015261119901526000610912015260006108e2015260006103410152611ff96000f3fe608060405234801561001057600080fd5b50600436106102775760003560e01c80637ecebe0011610160578063c63d75b6116100d8578063d905777e1161008c578063ef8b30f711610071578063ef8b30f714610571578063f23e9e6e14610584578063fc0c546a1461058d57600080fd5b8063d905777e1461051d578063dd62ed3e1461054657600080fd5b8063cb1a4fc0116100bd578063cb1a4fc0146104ef578063ce96cb77146104f7578063d505accf1461050a57600080fd5b8063c63d75b6146103a4578063c6e6f592146104dc57600080fd5b8063a2fc1daf1161012f578063b3d7f6b911610114578063b3d7f6b9146104a3578063b460af94146104b6578063ba087652146104c957600080fd5b8063a2fc1daf1461047d578063a9059cbb1461049057600080fd5b80637ecebe001461042d578063886f039a1461044d57806394bf804d1461046257806395d89b411461047557600080fd5b80633644e515116101f35780636ca09603116101c257806370a08231116101a757806370a08231146103f257806370ca01ab1461041257806376ffb9bd1461041a57600080fd5b80636ca09603146103cc5780636e553f65146103df57600080fd5b80633644e5151461037557806338d52e0f1461037d578063402d267d146103a45780634cdad506146103b957600080fd5b80630a28a4771161024a5780632131c68c1161022f5780632131c68c146102fe57806323b872dd14610329578063313ce5671461033c57600080fd5b80630a28a477146102e257806318160ddd146102f557600080fd5b806301e1d1141461027c57806306fdde031461029757806307a2d13a146102ac578063095ea7b3146102bf575b600080fd5b6102846105a0565b6040519081526020015b60405180910390f35b61029f6106a4565b60405161028e9190611c44565b6102846102ba366004611c99565b610732565b6102d26102cd366004611cce565b61075f565b604051901515815260200161028e565b6102846102f0366004611c99565b6107cc565b61028460025481565b600a54610311906001600160a01b031681565b6040516001600160a01b03909116815260200161028e565b6102d2610337366004611cf8565b6107ec565b6103637f000000000000000000000000000000000000000000000000000000000000000081565b60405160ff909116815260200161028e565b6102846108de565b6103117f000000000000000000000000000000000000000000000000000000000000000081565b6102846103b2366004611d34565b5060001990565b6102846103c7366004611c99565b610934565b600654610311906001600160a01b031681565b6102846103ed366004611d4f565b61094b565b610284610400366004611d34565b60036020526000908152604090205481565b610284610a39565b600854610311906001600160a01b031681565b61028461043b366004611d34565b60056020526000908152604090205481565b61046061045b366004611d7b565b610bf3565b005b610284610470366004611d4f565b610e07565b61029f610ea3565b600954610311906001600160a01b031681565b6102d261049e366004611cce565b610eb0565b6102846104b1366004611c99565b610f28565b6102846104c4366004611da5565b610f47565b6102846104d7366004611da5565b61105d565b6102846104ea366004611c99565b6111c0565b6104606111e0565b610284610505366004611d34565b6115b4565b610460610518366004611de1565b6115d6565b61028461052b366004611d34565b6001600160a01b031660009081526003602052604090205490565b610284610554366004611d7b565b600460209081526000928352604080842090915290825290205481565b61028461057f366004611c99565b611829565b610284600b5481565b600754610311906001600160a01b031681565b6009546040516246613160e11b81523060048201526000916001600160a01b031690628cc2629060240160206040518083038186803b1580156105e257600080fd5b505afa1580156105f6573d6000803e3d6000fd5b505050506040513d601f19601f8201168201806040525081019061061a9190611e54565b6008546040516370a0823160e01b81523060048201526001600160a01b03909116906370a082319060240160206040518083038186803b15801561065d57600080fd5b505afa158015610671573d6000803e3d6000fd5b505050506040513d601f19601f820116820180604052508101906106959190611e54565b61069f9190611e83565b905090565b600080546106b190611e9b565b80601f01602080910402602001604051908101604052809291908181526020018280546106dd90611e9b565b801561072a5780601f106106ff5761010080835404028352916020019161072a565b820191906000526020600020905b81548152906001019060200180831161070d57829003601f168201915b505050505081565b6002546000908015610756576107516107496105a0565b849083611841565b610758565b825b9392505050565b3360008181526004602090815260408083206001600160a01b038716808552925280832085905551919290917f8c5be1e5ebec7d5bd14f71427d1e84f3dd0314c0f7b2291e5b200ac8c7c3b925906107ba9086815260200190565b60405180910390a35060015b92915050565b600254600090801561075657610751816107e4610a39565b859190611860565b6001600160a01b03831660009081526004602090815260408083203384529091528120546000198114610848576108238382611ed6565b6001600160a01b03861660009081526004602090815260408083203384529091529020555b6001600160a01b03851660009081526003602052604081208054859290610870908490611ed6565b90915550506001600160a01b03808516600081815260036020526040908190208054870190555190918716907fddf252ad1be2c89b69c2b068fc378daa952ba7f163c4a11628f55a4df523b3ef906108cb9087815260200190565b60405180910390a3506001949350505050565b60007f0000000000000000000000000000000000000000000000000000000000000000461461090f5761069f61188e565b507f000000000000000000000000000000000000000000000000000000000000000090565b600254600090801561075657610751610749610a39565b600061095683611829565b9050806109aa5760405162461bcd60e51b815260206004820152600b60248201527f5a45524f5f53484152455300000000000000000000000000000000000000000060448201526064015b60405180910390fd5b6109df6001600160a01b037f000000000000000000000000000000000000000000000000000000000000000016333086611928565b6109e982826119bb565b60408051848152602081018390526001600160a01b0384169133917fdcbc1c05240f31ff3ad067ef1ee35ce4997762752e3a095284754544f4c709d7910160405180910390a36107c68382611a27565b6009546040516246613160e11b815230600482015260009182916001600160a01b0390911690628cc2629060240160206040518083038186803b158015610a7f57600080fd5b505afa158015610a93573d6000803e3d6000fd5b505050506040513d601f19601f82011682018060405250810190610ab79190611e54565b905060008115610b7857620f4240600b5483610ad39190611eed565b610add9190611f0c565b610ae79083611ed6565b6008546040516370a0823160e01b815230600482015291925082916001600160a01b03909116906370a082319060240160206040518083038186803b158015610b2f57600080fd5b505afa158015610b43573d6000803e3d6000fd5b505050506040513d601f19601f82011682018060405250810190610b679190611e54565b610b719190611e83565b9250505090565b6008546040516370a0823160e01b81523060048201526001600160a01b03909116906370a082319060240160206040518083038186803b158015610bbb57600080fd5b505afa158015610bcf573d6000803e3d6000fd5b505050506040513d601f19601f82011682018060405250810190610b719190611e54565b600a546001600160a01b03163314610c4d5760405162461bcd60e51b815260206004820152601c60248201527f54563a3a73656e646572206973206e6f742064616f416464726573730000000060448201526064016109a1565b6008546001600160a01b0383811691161415610cb75760405162461bcd60e51b815260206004820152602360248201527f54563a3a63616e6e6f74207265636f76657220676f7665726e616e636520746f60448201526235b2b760e91b60648201526084016109a1565b6040516370a0823160e01b81523060048201526000906001600160a01b038416906370a082319060240160206040518083038186803b158015610cf957600080fd5b505afa158015610d0d573d6000803e3d6000fd5b505050506040513d601f19601f82011682018060405250810190610d319190611e54565b60405163a9059cbb60e01b81526001600160a01b038481166004830152602482018390529192509084169063a9059cbb90604401602060405180830381600087803b158015610d7f57600080fd5b505af1158015610d93573d6000803e3d6000fd5b505050506040513d601f19601f82011682018060405250810190610db79190611f2e565b50604080516001600160a01b0385811682526020820184905284168183015290517f4f3d8e0eab04d6b331f92f92fbdfcb4525afc9e8190eff8c9e3adf7f99c5213e9181900360600190a1505050565b6000610e1283610f28565b9050610e496001600160a01b037f000000000000000000000000000000000000000000000000000000000000000016333084611928565b610e5382846119bb565b60408051828152602081018590526001600160a01b0384169133917fdcbc1c05240f31ff3ad067ef1ee35ce4997762752e3a095284754544f4c709d7910160405180910390a36107c68184611a27565b600180546106b190611e9b565b33600090815260036020526040812080548391908390610ed1908490611ed6565b90915550506001600160a01b038316600081815260036020526040908190208054850190555133907fddf252ad1be2c89b69c2b068fc378daa952ba7f163c4a11628f55a4df523b3ef906107ba9086815260200190565b600254600090801561075657610751610f3f610a39565b849083611860565b6000610f516111e0565b610f5a846107cc565b9050336001600160a01b03831614610fca576001600160a01b03821660009081526004602090815260408083203384529091529020546000198114610fc857610fa38282611ed6565b6001600160a01b03841660009081526004602090815260408083203384529091529020555b505b610fd48482611b13565b610fde8282611b44565b60408051858152602081018390526001600160a01b03808516929086169133917ffbde797d201c681b91056529119e0b02407c7bb96a4a2c75c01fc9667232c8db910160405180910390a46107586001600160a01b037f0000000000000000000000000000000000000000000000000000000000000000168486611bb8565b60006110676111e0565b336001600160a01b038316146110d5576001600160a01b038216600090815260046020908152604080832033845290915290205460001981146110d3576110ae8582611ed6565b6001600160a01b03841660009081526004602090815260408083203384529091529020555b505b6110de84610934565b90508061112d5760405162461bcd60e51b815260206004820152600b60248201527f5a45524f5f41535345545300000000000000000000000000000000000000000060448201526064016109a1565b6111378185611b13565b6111418285611b44565b60408051828152602081018690526001600160a01b03808516929086169133917ffbde797d201c681b91056529119e0b02407c7bb96a4a2c75c01fc9667232c8db910160405180910390a46107586001600160a01b037f0000000000000000000000000000000000000000000000000000000000000000168483611bb8565b600254600090801561075657610751816111d86105a0565b859190611841565b6007546040516370a0823160e01b81523060048201526000916001600160a01b0316906370a082319060240160206040518083038186803b15801561122457600080fd5b505afa158015611238573d6000803e3d6000fd5b505050506040513d601f19601f8201168201806040525081019061125c9190611e54565b6009546040516246613160e11b81523060048201529192506000916001600160a01b0390911690628cc2629060240160206040518083038186803b1580156112a357600080fd5b505afa1580156112b7573d6000803e3d6000fd5b505050506040513d601f19601f820116820180604052508101906112db9190611e54565b11156115b157600960009054906101000a90046001600160a01b03166001600160a01b0316633d18b9126040518163ffffffff1660e01b8152600401600060405180830381600087803b15801561133157600080fd5b505af1158015611345573d6000803e3d6000fd5b50506007546040516370a0823160e01b8152306004820152600093508492506001600160a01b03909116906370a082319060240160206040518083038186803b15801561139157600080fd5b505afa1580156113a5573d6000803e3d6000fd5b505050506040513d601f19601f820116820180604052508101906113c99190611e54565b6113d39190611ed6565b90506000620f4240600b54836113e99190611eed565b6113f39190611f0c565b905060006114018284611ed6565b600754600a5460405163a9059cbb60e01b81526001600160a01b03918216600482015260248101869052929350169063a9059cbb90604401602060405180830381600087803b15801561145357600080fd5b505af1158015611467573d6000803e3d6000fd5b505050506040513d601f19601f8201168201806040525081019061148b9190611f2e565b5060075460065460405163095ea7b360e01b81526001600160a01b0391821660048201526024810184905291169063095ea7b390604401602060405180830381600087803b1580156114dc57600080fd5b505af11580156114f0573d6000803e3d6000fd5b505050506040513d601f19601f820116820180604052508101906115149190611f2e565b50600654604051630ea598cb60e41b8152600481018390526001600160a01b039091169063ea598cb090602401600060405180830381600087803b15801561155b57600080fd5b505af115801561156f573d6000803e3d6000fd5b505060408051848152602081018690527fc909294552bef49b9e0fa25e07f141f3476b12eed53f42fc6551d36d30303fbf935001905060405180910390a15050505b50565b6001600160a01b0381166000908152600360205260408120546107c690610732565b428410156116265760405162461bcd60e51b815260206004820152601760248201527f5045524d49545f444541444c494e455f4558504952454400000000000000000060448201526064016109a1565b600060016116326108de565b6001600160a01b038a811660008181526005602090815260409182902080546001810190915582517f6e71edae12b1b97f4d1f60370fef10105fa2faae0126114a169c64845d6126c98184015280840194909452938d166060840152608083018c905260a083019390935260c08083018b90528151808403909101815260e08301909152805192019190912061190160f01b6101008301526101028201929092526101228101919091526101420160408051601f198184030181528282528051602091820120600084529083018083525260ff871690820152606081018590526080810184905260a0016020604051602081039080840390855afa15801561173e573d6000803e3d6000fd5b5050604051601f1901519150506001600160a01b038116158015906117745750876001600160a01b0316816001600160a01b0316145b6117c05760405162461bcd60e51b815260206004820152600e60248201527f494e56414c49445f5349474e455200000000000000000000000000000000000060448201526064016109a1565b6001600160a01b0390811660009081526004602090815260408083208a8516808552908352928190208990555188815291928a16917f8c5be1e5ebec7d5bd14f71427d1e84f3dd0314c0f7b2291e5b200ac8c7c3b925910160405180910390a350505050505050565b600254600090801561075657610751816111d8610a39565b82820281151584158583048514171661185957600080fd5b0492915050565b82820281151584158583048514171661187857600080fd5b6001826001830304018115150290509392505050565b60007f8b73c3c69bb8fe3d512ecc4cf759cc79239f7b179b0ffacaa9a75d522b39400f60006040516118c09190611f50565b6040805191829003822060208301939093528101919091527fc89efdaa54c0f20c7adf612882df0950f5a951637e0307cdcb4c672f298b8bc660608201524660808201523060a082015260c00160405160208183030381529060405280519060200120905090565b60006040516323b872dd60e01b81528460048201528360248201528260448201526020600060648360008a5af13d15601f3d11600160005114161716915050806119b45760405162461bcd60e51b815260206004820152601460248201527f5452414e534645525f46524f4d5f4641494c454400000000000000000000000060448201526064016109a1565b5050505050565b80600260008282546119cd9190611e83565b90915550506001600160a01b0382166000818152600360209081526040808320805486019055518481527fddf252ad1be2c89b69c2b068fc378daa952ba7f163c4a11628f55a4df523b3ef91015b60405180910390a35050565b60075460065460405163095ea7b360e01b81526001600160a01b0391821660048201526024810185905291169063095ea7b390604401602060405180830381600087803b158015611a7757600080fd5b505af1158015611a8b573d6000803e3d6000fd5b505050506040513d601f19601f82011682018060405250810190611aaf9190611f2e565b50600654604051630ea598cb60e41b8152600481018490526001600160a01b039091169063ea598cb0906024015b600060405180830381600087803b158015611af757600080fd5b505af1158015611b0b573d6000803e3d6000fd5b505050505050565b600654604051636f074d1f60e11b8152600481018490526001600160a01b039091169063de0e9a3e90602401611add565b6001600160a01b03821660009081526003602052604081208054839290611b6c908490611ed6565b90915550506002805482900390556040518181526000906001600160a01b038416907fddf252ad1be2c89b69c2b068fc378daa952ba7f163c4a11628f55a4df523b3ef90602001611a1b565b600060405163a9059cbb60e01b8152836004820152826024820152602060006044836000895af13d15601f3d1160016000511416171691505080611c3e5760405162461bcd60e51b815260206004820152600f60248201527f5452414e534645525f4641494c4544000000000000000000000000000000000060448201526064016109a1565b50505050565b600060208083528351808285015260005b81811015611c7157858101830151858201604001528201611c55565b81811115611c83576000604083870101525b50601f01601f1916929092016040019392505050565b600060208284031215611cab57600080fd5b5035919050565b80356001600160a01b0381168114611cc957600080fd5b919050565b60008060408385031215611ce157600080fd5b611cea83611cb2565b946020939093013593505050565b600080600060608486031215611d0d57600080fd5b611d1684611cb2565b9250611d2460208501611cb2565b9150604084013590509250925092565b600060208284031215611d4657600080fd5b61075882611cb2565b60008060408385031215611d6257600080fd5b82359150611d7260208401611cb2565b90509250929050565b60008060408385031215611d8e57600080fd5b611d9783611cb2565b9150611d7260208401611cb2565b600080600060608486031215611dba57600080fd5b83359250611dca60208501611cb2565b9150611dd860408501611cb2565b90509250925092565b600080600080600080600060e0888a031215611dfc57600080fd5b611e0588611cb2565b9650611e1360208901611cb2565b95506040880135945060608801359350608088013560ff81168114611e3757600080fd5b9699959850939692959460a0840135945060c09093013592915050565b600060208284031215611e6657600080fd5b5051919050565b634e487b7160e01b600052601160045260246000fd5b60008219821115611e9657611e96611e6d565b500190565b600181811c90821680611eaf57607f821691505b60208210811415611ed057634e487b7160e01b600052602260045260246000fd5b50919050565b600082821015611ee857611ee8611e6d565b500390565b6000816000190483118215151615611f0757611f07611e6d565b500290565b600082611f2957634e487b7160e01b600052601260045260246000fd5b500490565b600060208284031215611f4057600080fd5b8151801515811461075857600080fd5b600080835481600182811c915080831680611f6c57607f831692505b6020808410821415611f8c57634e487b7160e01b86526022600452602486fd5b818015611fa05760018114611fb157611fde565b60ff19861689528489019650611fde565b60008a81526020902060005b86811015611fd65781548b820152908501908301611fbd565b505084890196505b50949897505050505050505056fea164736f6c6343000809000a",
  "devdoc": {
    "author": "@parv3213",
    "kind": "dev",
    "methods": {},
    "version": 1
  },
  "userdoc": {
    "kind": "user",
    "methods": {
      "daoAllocationPercent()": {
        "notice": "percent, in PPM, applicable on rewards earned. This is used for DAO maintenance."
      }
    },
    "version": 1
  },
  "storageLayout": {
    "storage": [
      {
        "astId": 746,
        "contract": "contracts/TokenizedVault.sol:TokenizedVault",
        "label": "name",
        "offset": 0,
        "slot": "0",
        "type": "t_string_storage"
      },
      {
        "astId": 748,
        "contract": "contracts/TokenizedVault.sol:TokenizedVault",
        "label": "symbol",
        "offset": 0,
        "slot": "1",
        "type": "t_string_storage"
      },
      {
        "astId": 752,
        "contract": "contracts/TokenizedVault.sol:TokenizedVault",
        "label": "totalSupply",
        "offset": 0,
        "slot": "2",
        "type": "t_uint256"
      },
      {
        "astId": 756,
        "contract": "contracts/TokenizedVault.sol:TokenizedVault",
        "label": "balanceOf",
        "offset": 0,
        "slot": "3",
        "type": "t_mapping(t_address,t_uint256)"
      },
      {
        "astId": 762,
        "contract": "contracts/TokenizedVault.sol:TokenizedVault",
        "label": "allowance",
        "offset": 0,
        "slot": "4",
        "type": "t_mapping(t_address,t_mapping(t_address,t_uint256))"
      },
      {
        "astId": 770,
        "contract": "contracts/TokenizedVault.sol:TokenizedVault",
        "label": "nonces",
        "offset": 0,
        "slot": "5",
        "type": "t_mapping(t_address,t_uint256)"
      },
      {
        "astId": 1380,
        "contract": "contracts/TokenizedVault.sol:TokenizedVault",
        "label": "htmContract",
        "offset": 0,
        "slot": "6",
        "type": "t_address"
      },
      {
        "astId": 1382,
        "contract": "contracts/TokenizedVault.sol:TokenizedVault",
        "label": "token",
        "offset": 0,
        "slot": "7",
        "type": "t_address"
      },
      {
        "astId": 1384,
        "contract": "contracts/TokenizedVault.sol:TokenizedVault",
        "label": "gToken",
        "offset": 0,
        "slot": "8",
        "type": "t_address"
      },
      {
        "astId": 1386,
        "contract": "contracts/TokenizedVault.sol:TokenizedVault",
        "label": "gutdContract",
        "offset": 0,
        "slot": "9",
        "type": "t_address"
      },
      {
        "astId": 1388,
        "contract": "contracts/TokenizedVault.sol:TokenizedVault",
        "label": "daoAddress",
        "offset": 0,
        "slot": "10",
        "type": "t_address"
      },
      {
        "astId": 1391,
        "contract": "contracts/TokenizedVault.sol:TokenizedVault",
        "label": "daoAllocationPercent",
        "offset": 0,
        "slot": "11",
        "type": "t_uint256"
      }
    ],
    "types": {
      "t_address": {
        "encoding": "inplace",
        "label": "address",
        "numberOfBytes": "20"
      },
      "t_mapping(t_address,t_mapping(t_address,t_uint256))": {
        "encoding": "mapping",
        "key": "t_address",
        "label": "mapping(address => mapping(address => uint256))",
        "numberOfBytes": "32",
        "value": "t_mapping(t_address,t_uint256)"
      },
      "t_mapping(t_address,t_uint256)": {
        "encoding": "mapping",
        "key": "t_address",
        "label": "mapping(address => uint256)",
        "numberOfBytes": "32",
        "value": "t_uint256"
      },
      "t_string_storage": {
        "encoding": "bytes",
        "label": "string",
        "numberOfBytes": "32"
      },
      "t_uint256": {
        "encoding": "inplace",
        "label": "uint256",
        "numberOfBytes": "32"
      }
    }
  }
}